:020000040002F8
:10700000907B0020E1730200E9730200EB73020041
:10701000ED730200EF730200F17302000000000044
:10702000000000000000000000000000F3730200F8
:10703000F573020000000000F7730200F97302000C
:10704000DD7A0200FB730200E5830200B5810200D5
:10705000C9810200FB73020079790200FB73020010
:10706000FB730200FB730200FB730200FB73020060
:10707000FB730200FB730200FB730200FB73020050
:10708000F583020079800200FB730200FB730200AB
:10709000FB730200FB730200DD810200FB73020040
:1070A000FB730200FB730200FB730200FB73020020
:1070B000FB730200FB7302000000000000000000F0
:1070C000FB730200FB730200FB730200FB73020000
:1070D000FB730200FB730200FB730200FB730200F0
:1070E000FB730200FB730200FB7302000000000050
:1070F00000000000FB73020000000000FB730200B0
:10710000000000000000000000000000000000007F
:10711000000000000000000000000000000000006F
:10712000000000000000000000000000000000005F
:10713000000000000000000000000000000000004F
:10714000000000000000000000000000000000003F
:10715000000000000000000000000000000000002F
:10716000000000000000000000000000000000001F
:10717000000000000000000000000000000000000F
:1071800000000000000000000000000000000000FF
:1071900000000000000000000000000000000000EF
:1071A00000000000000000000000000000000000DF
:1071B00000000000000000000000000000000000CF
:1071C00000000000000000000000000000000000BF
:1071D00000000000000000000000000000000000AF
:1071E000000000000000000000000000000000009F
:1071F000000000000000000000000000000000008F
:10720000DFF810D000F060FB00480047E1C002004A
:10721000AFF30080907B002000B583B00290009116
:10722000019244F2010071466A4601F00BFC03B082
:1072300000BD000030B450E8012F93B2C48923444C
:107240008489A34228BF1B1B0489A34202BFBFF34A
:107250002F8F002007E0C3EA020340E80134002C2E
:10726000E9D14FF001000A6030BC704750E8012FAF
:10727000C2EA024240E801210029F7D1704730B448
:1072800050E8022F1FFAA2F3C488A34202BFBFF343
:107290002F8F00200DE0C48923448489A34228BF96
:1072A0001B1BC2EA034340E80234002CE8D14FF034
:1072B00001000A6030BC704750E8022FC2EA224247
:1072C00040E802210029F7D17047034653E8022F16
:1072D000D988B2EB324F4FF0000017BF92B241EAAB
:1072E000014142EA014104E05A68B2EB324F08BF63
:1072F000012043E80212002AE8D1704730B4044666
:1073000054E8000F0D4644E80053002BF8D11560F7
:1073100030BC704730B4044654E8000F40EA010521
:1073200044E80053002BF7D1156030BC704730B4EF
:10733000044654E8000F00EA010544E80053002B1E
:10734000F7D1156030BC704730B4044654E8000FE4
:1073500080EA010544E80053002BF7D1156030BCEA
:10736000704730B4044654E8000F00EB010544E8D0
:107370000053002BF7D1156030BC704730B4044681
:1073800054E8000FA0EB010544E80053002BF7D1AF
:10739000156030BC704770B404464FF0000054E8EC
:1073A000006F0D68AE4207BF44E80023012044E8A7
:1073B00000630E60002B1CBF0020F0E770BC70471C
:1073C00030B4044654E8000F88422CBF451A0546E5
:1073D00044E80053002BF5D1156030BC7047000025
:1073E0000648804706480047FEE7FEE7FEE7FEE75F
:1073F000FEE7FEE7FEE7FEE7FEE7FEE7F5810200B7
:10740000017202002DE9F05F0546002092469B467E
:1074100088460646814640241BE0284641464746AA
:10742000224600F0ADF953465A46C01A914110D396
:1074300011461846224600F016F82D1A67EB01088F
:107440004F4622460120002100F00DF817EB0009FD
:107450004E41201EA4F10104DFDC484631462A4695
:107460004346BDE8F09F202A04DB203A00FA02F1EF
:10747000002070479140C2F1200320FA03F3194322
:107480009040704700487047AC1A030040EA01037F
:107490009B0703D009E008C9121F08C0042AFAD2CA
:1074A00003E011F8013B00F8013B521EF9D270478E
:1074B000D2B201E000F8012B491EFBD27047002236
:1074C000F6E710B513460A4604461946FFF7F0FFE3
:1074D000204610BD421C10F8011B0029FBD1801A68
:1074E0007047034611F8012B00F8012B002AF9D14F
:1074F000184670472DE9FE4F81EA030404F000446A
:1075000021F0004100944FF0000B23F0004350EABB
:1075100001045ED052EA03045BD0C3F30A54C1F302
:107520000A552C44A4F2F3340194A0FB0254C1F395
:10753000130141F48011C3F3130343F4801301FBDF
:10754000024400FB034E840A970A44EA815447EA46
:107550008357A4FB076802958D0A05FB07854FEA50
:10756000932C04FB0C542705029D4FEA065847EA6A
:107570001637B5EB08056EEB070C870E920E47EA3F
:10758000811742EA8312A7FB0201B6EB0B0164EB01
:1075900000042B0D43EA0C335E1844EB1C50DA4612
:1075A0005146E7FB0201C5F313044FEA0B3343EAEC
:1075B00014534FEA0432019C43EA0603A4F10C047D
:1075C0000294009CCDE900B400F030F903B0BDE8AE
:1075D000F08F00200146F9E72DE9F04D81EA030420
:1075E00004F0004B21F0004514464FF0000A23F050
:1075F000004150EA050220D054EA01021DD0C5F333
:107600000A570246C5F31303C1F31300C1F30A5628
:1076100040F4801543F48013A7EB0608101BD646F0
:1076200008F2FD3873EB050002D308F1010801E010
:1076300092185B41B8F1000F03DA00200146BDE863
:10764000F08D00204FF48011064684460EE0171B93
:1076500073EB050705D3121B63EB050306434CEAE6
:10766000010C49084FEA300092185B4150EA0107CB
:10767000EDD152EA030012D082EA040083EA050148
:10768000084305D0101BAB4106D20122002306E0BF
:1076900000224FF0004302E06FF0010253101AEB9A
:1076A00006004CEB085110EB0A0041EB0B01BDE862
:1076B000F04D00F0ACB80EB5C10F80EAE0700844A0
:1076C000CA07002140F233438DE80E000A460B46FC
:1076D00000F0ACF803B000BD0EB540F233410291AA
:1076E0000021CDE900110A460B4600F09FF803B0D7
:1076F00000BD00F0004230F000400AD0C10D01F59D
:107700006071C0F3160042EA0151C20840071143FC
:10771000704700200146704730B5041E71F1000427
:1077200004DB4FF00044404264EB0101141E73F18E
:10773000000405DB1C464FF00043524263EB040398
:10774000994208BF904230BD01F0004330B421F0AF
:10775000004150EA010206D00A0DA2F56072C1F3A1
:107760001301002A02DC30BC00207047440F44EAB9
:10777000C104C100E01830BC00EBC25000F010B8EA
:10778000202A04DB203A21FA02F00021704721FA76
:1077900002F3D040C2F120029140084319467047DD
:1077A0000029A8BF7047401C490008BF20F0010015
:1077B000704710B4B0FA80FC00FA0CF050EA0104F3
:1077C00004BF10BC704749B1CCF1200421FA04F485
:1077D00011FA0CF118BF012121430843A3EB0C015E
:1077E000CB1D4FEA00614FEA102042BF002010BCC1
:1077F000704700EBC35010440029A4BF10BC704771
:10780000401C490008BF20F0010010BC704710B5B3
:10781000141E73F1000408DA401C41F100019218B3
:107820005B411A4301D120F0010010BD2DE9F04D5C
:1078300092469B4611B1B1FA81F202E0B0FA80F2B1
:1078400020329046FFF70FFE04460F4640EA0A003A
:1078500041EA0B0153465A46084313D0114653EAF6
:10786000010019D0C8F140025046FFF789FF0546D4
:107870000E46504659464246FFF7F5FD084305D0EF
:10788000012004E020463946BDE8F08D0020054384
:1078900046EAE0762C4337430A986305E40AA0EBF6
:1078A00008000022FD0A44EA47540A3002D50020AD
:1078B0000146E9E7010510196941DDE908450019AC
:1078C0006941BDE8F04DA2E7064C074D06E0E068CF
:1078D00040F0010394E8070098471034AC42F6D317
:1078E000FFF792FCCC220300EC22030070B58C1849
:1078F00010F8015B15F0070301D110F8013B2A11C4
:1079000006D110F8012B03E010F8016B01F8016BB0
:107910005B1EF9D12B0705D40023521E0DD401F8AC
:10792000013BFAE710F8013BCB1A921C03E013F875
:10793000015B01F8015B521EF9D5A142D8D30020AA
:1079400070BD10B5082005F07FFC042005F07CFC1C
:10795000072005F079FC052005F076FC1A2005F0DB
:1079600073FC102005F070FC0B2005F06DFC20204E
:1079700005F06AFC10BD00002DE9FC470026002040
:10798000009001904FF480770125002410E03846E4
:1079900005F0A4FD40B100BF25480068284018B19B
:1079A000384605F08DFD2E436D00381D87B2641CEE
:1079B000082CECD34FF4BE7005F090FD50B14FF49D
:1079C000BE7005F07DFD46F000466A4602210020AB
:1079D00005F070FCF0B210B3012500241DE005EAAB
:1079E0000600C0B100BF134850F82400C0F30520C2
:1079F000814600BF0F4850F82400C0F30140824682
:107A0000204603F0EDF88046B8F1000F02D0514651
:107A10004846C04700BF6D00641C082CDFD306F049
:107A2000004010B1684608F06BF8BDE8FC87000024
:107A3000046300401065004010B5044604F00100E6
:107A400018B1082005F0EDFC02E0082005F04CFC20
:107A5000C4F3400018B1042005F0E3FC02E0042068
:107A600005F042FCC4F3800018B1072005F0D9FCF2
:107A700002E0072005F038FCC4F3C00018B105206F
:107A800005F0CFFC02E0052005F02EFCC4F3001049
:107A900018B11A2005F0C5FC02E01A2005F024FCFC
:107AA000C4F3401018B1102005F0BBFC02E0102018
:107AB00005F01AFCC4F3801018B10B2005F0B1FCDE
:107AC00002E00B2005F010FCE00918B1202005F0C1
:107AD000A8FC02E0202005F007FC10BD10B54FF413
:107AE000807005F006F980B14FF4807005F00AF956
:107AF000012005F011F90D48407930B901200B49FA
:107B0000487108460168002088474FF4827005F0EC
:107B1000F0F850B14FF4827005F0F4F8022005F04F
:107B2000FBF8024801680120884710BD4833002057
:107B300038B50E2005F0D8FB012005F0F7F800203D
:107B40001049087000BF034601220F4900900F48FA
:107B500005F07CF904463CB100BF0DA24FF49E61D4
:107B60002046FFF759FB00BF00BF00BF0548007863
:107B70000028FBD04FF48C7006F0EAFD0E2005F0D3
:107B800050FC38BD1E2B00203A2B0020301603007D
:107B90002E2E5C2E2E5C2E2E5C6D61696E2E630087
:107BA00010B50A2005F0C2F800F054F80A2005F0DC
:107BB000BDF80A4800F032F90A2005F0B7F8084885
:107BC00000F038FC0A2005F0B1F800F00BF80A20AC
:107BD00005F0ACF8FFF7ACFF10BD00000E2C002044
:107BE000DA2B002038B50E2005F07EFB012005F0D1
:107BF0009DF800201049087000BF034601220F497C
:107C000000900F4805F022F904463CB100BF0DA2D8
:107C100040F2FE412046FFF7FFFA00BF00BF00BF61
:107C2000054800780028FBD0012005F07FF80E20E1
:107C300005F0F7FB38BD00001E2B0020392B00207B
:107C4000301603002E2E5C2E2E5C2E2E5C6D61698C
:107C50006E2E630038B50E2005F046FB012005F0BE
:107C600065F800201049087000BF034601220F4943
:107C700000900F4805F0EAF804463CB100BF0DA2A1
:107C800040F2E2412046FFF7C7FA00BF00BF00BF45
:107C9000054800780028FBD0012005F047F80E20A9
:107CA00005F0BFFB38BD00001E2B0020382B002044
:107CB000301603002E2E5C2E2E5C2E2E5C6D61691C
:107CC0006E2E63003EB504460020029001900E2007
:107CD00005F00AFB402000EB8400C0B202900020B7
:107CE0002A49087000BF0346012202A900902848D3
:107CF00005F0ACF805463DB100BF26A240F2865122
:107D00002846FFF789FA00BF00BF00BF1F48007870
:107D10000028FBD000201D49087000BF0420214B23
:107D20000022114600901A4805F090F805463DB132
:107D300000BF18A240F28B512846FFF76DFA00BF32
:107D400000BF00BF114800780028FBD00E2005F0CE
:107D500068FB40F23C4006F0FBFC1248C0780199F9
:107D600041EA006001900F488078019941EA0040A3
:107D700001900C484078019941EA0020019009489F
:107D8000007801990843019001983EBD1E2B002008
:107D9000301603002E2E5C2E2E5C2E2E5C6D61693B
:107DA0006E2E6300412B002038B50E2005F09CFAA2
:107DB000012004F0BBFF00201049087000BF022022
:107DC0000F4B02460F4900900F4805F03FF804465C
:107DD0003CB100BF0DA240F2D3412046FFF71CFA90
:107DE00000BF00BF00BF054800780028FBD001207D
:107DF00004F09CFF0E2005F014FB38BD1E2B002064
:107E00003F2B00203B2B0020301603002E2E5C2E33
:107E10002E5C2E2E5C6D61696E2E6300F8B50546F2
:107E20000E2005F061FA012004F080FF00202049B7
:107E3000087000BF034602221E4900901E4805F04C
:107E400005F804463CB100BF1CA240F20C5120468C
:107E5000FFF7E2F900BF00BF012004F067FF002434
:107E60001BE000201249087000BF291903460122B7
:107E70000090114804F0EAFF06463EB100BF0FA291
:107E800040F211513046FFF7C7F900BF00BF00BFF5
:107E9000074800780028FBD0641CB4F5806FE0DB55
:107EA000012004F043FF0E2005F0BBFAF8BD0000EE
:107EB0001E2B0020342B0020301603002E2E5C2EAB
:107EC0002E5C2E2E5C6D61696E2E630000B589B04C
:107ED0000020059006900790089001900290039072
:107EE00004900120FFF7EEFE0690069803F026FAB4
:107EF0008DED020A9DED020A024880ED010A09B0EB
:107F000000BD0000FC40002030B52DED028B8FB08D
:107F100000243C216846FFF7D2FA9FED370AB0EE05
:107F2000408A002561E03549485DFFF785FD2C4614
:107F3000FFF7CCFF324890ED010A324800EB840095
:107F400080ED000A2F4800EB840090ED000A2E48D7
:107F500000EB8400D0ED000A30EE600A2B4800EB05
:107F6000840080ED000A2A4800EB840090ED000AAE
:107F7000B5EEC00AF1EE10FA0AD1244800EB8400F5
:107F800090ED000A234800EB840080ED000A16E023
:107F9000B7EE000A30EE480A1D4800EB8400D0ED31
:107FA000000A20EE200A194800EB8400D0ED000AF8
:107FB00008EE200A174800EB840080ED000A1548FF
:107FC00000EB840090ED000A114800EB840080ED86
:107FD000000A104800EB840090ED000A0E4800EB08
:107FE000840080ED000A681CC5B20F2D9BDB0FB02A
:107FF000BDEC028B30BD00001F856B3E0E300020B3
:10800000FC400020504100208C410020F84200201C
:10801000BC420020344300201441002030B52DED37
:10802000028B8FB000259FED100AB0EE408A3C21F4
:108030006846FFF744FA002410E00C49085DFFF79A
:10804000FBFC2546FFF742FF094890ED010A09486D
:1080500000EB850080ED000A601CC4B20F2CECDB45
:108060000FB0BDEC028B30BD000000000E300020D0
:10807000FC400020AC43002010B5034A1068034ABE
:108080001168884710BD0000D0330020CC33002099
:1080900010B52DED048B002418E0FFF7BFFF002082
:1080A00011E01C4901EB800191ED000A1A4901EB36
:1080B0008001D1ED000A30EE200A164901EB800163
:1080C00081ED000A401C0F28EBDB641C0F2CE4DB65
:1080D000002419E00F4800EB840090ED000A10EE38
:1080E000101A0846FFF705FB41EC190B9FED0B0B2F
:1080F00053EC102BFFF770FA41EC180BFFF724FB41
:10810000084941F82400641C0F2CE3DBBDEC048B10
:1081100010BD000070430020AC43002000000000B0
:1081200000002E408C41002010B500F06BFA10BD0D
:108130002DE9F047074688461646C24607EB470139
:108140001B4800EBC109D9F8140020B1012811D057
:10815000022826D11EE0484600F08CFA0546B542BA
:1081600001D2002405E0344632465146484600F02C
:10817000C8FA18E0484600F07DFA0546B54201D23B
:10818000284600E03046044622465146484600F064
:10819000B8FA08E032465146484600F079FA0446FB
:1081A00001E0002400BF00BF2046BDE8F0870000CA
:1081B0001C59002010B50249024803F06BFE10BDA7
:1081C0000C5200200030004010B503494FF0402011
:1081D00008F052FD10BD00003052002010B506F02E
:1081E00035F910BD01480249086070470090D0037E
:1081F0004434002010B504F0AFFA40B100206B49C0
:1082000008604FF08041C1F810016949086004F02E
:10821000C5FA002855D06748006867490860654876
:10822000001D0068091D0860624808300068091DCB
:10823000086060480C300068091D08605D48103017
:108240000068091D08605B4814300068091D08605B
:1082500058481830006858492031086055481C308B
:108260000068091D0860534820300068091D086037
:10827000504824300068091D08604E4828300068C6
:10828000091D08604B482C300068091D08604948EA
:108290003030006848494031086046483430006852
:1082A000091D0860434838300068091D08604148CE
:1082B0003C300068091D08603E4840300068091DD8
:1082C000086004F08DFA10B13C483D49086004F0A4
:1082D00099F910B1FB203B49086004F0B5F938B1B9
:1082E000394801783948006861F30300374908606C
:1082F00004F0CCF918B14FF400703549086004F06F
:10830000E7F940B13348006800F0010018B16FF0A0
:108310000100304908603048006840F470002E4980
:108320000860BFF34F8FBFF36F8F00BF04F0F2F907
:1083300020B12A4800681E492031086000BF274844
:108340000838006800F0004028B92448001F006881
:1083500000F0004030B3012006F060FE12201F49FB
:108360000839086006F064FE12214FF01020C0F8B2
:10837000041206F05DFE002006F050FE00BFBFF3C1
:108380004F8F15487C38006800F4E06014490843BA
:10839000001D11497C390860BFF34F8F00BF00BF3B
:1083A00000BFFDE7FFF71EFF10BD00000C010040FD
:1083B000380500400404001020C500404881030037
:1083C0008C56004018F5004058020010E40E0040A2
:1083D000409602400004004088ED00E008120010C2
:1083E0000000FA0510B502490868804710BD00007A
:1083F0005033002008B500BF4FF480700B4940583F
:1084000008B1012000E0002078B1094800688047E9
:1084100000BF00204FF48071044A8850084611467E
:108420004058009000BF00BF00BF08BD00000140E1
:108430005C330020FEB505460E2004F055FF0120F8
:1084400004F074FC00206749087000BF0346022254
:1084500065490090654804F0F9FC04463CB100BF52
:1084600063A24FF4A7612046FEF7D6FE00BF00BF0F
:1084700000BF5C4800780028FBD0002002905949DA
:10848000087000BF0346012202A90090574804F07B
:10849000DDFC04463CB100BF55A240F23C512046F1
:1084A000FEF7BAFE00BF00BF00BF4E4800780028AC
:1084B000FBD0012004F03AFC0E2004F0B2FF0120B2
:1084C00004F034FC0E2004F00FFF012004F02EFC19
:1084D00000204449087000BF034602224249009030
:1084E000424804F0B3FC04463CB100BF40A240F255
:1084F00046512046FEF790FE00BF00BF00BF39483E
:1085000000780028FBD000241BE0002035490870CB
:1085100000BF2919034601220090344804F096FC5C
:1085200006463EB100BF32A240F24B513046FEF744
:1085300073FE00BF00BF00BF2A4800780028FBD0B0
:10854000641C302CE1DB012004F0F0FB0E2004F071
:1085500068FF012004F0EAFB0E2004F0C5FE0120B4
:1085600004F0E4FB00201F49087000BF034602220C
:108570001D4900901D4804F069FC04463CB100BF51
:108580001BA240F256512046FEF746FE00BF00BF38
:1085900000BF144800780028FBD019A000680190A3
:1085A00000201049087000BF0346012201A9009075
:1085B0000E4804F04BFC04463CB100BF0CA240F254
:1085C0005A512046FEF728FE00BF00BF00BF0548F5
:1085D00000780028FBD0012004F0A8FB0E2004F056
:1085E00020FFFEBD1E2B0020362B0020301603007E
:1085F0002E2E5C2E2E5C2E2E5C6D61696E2E63001D
:108600000100000010B5124C02202061606111A031
:10861000A0611349E1614FF4007121620021A16260
:108620006162E1620BA0A0640E49E1641021216542
:108630000021A1656165E1650BA1E01DFEF751FF19
:108640000AA12046FEF74DFF2020A07110BD0000BA
:10865000045900205465726D696E616C0000000061
:108660007C5900207C5B00205254540053454747FE
:108670004552000010B501460A69CB689A4204D8F9
:108680008C68641EE41AA01801E0D41A601E10BDA4
:108690002DE9F0470446894617464FF0000AE56881
:1086A00000BFD4F81080A84503D9A8EB0500461EEA
:1086B00004E0A5EB0800401CA1680E1AA068401B4E
:1086C000B04201D9304601E0A068401B0646BE42D8
:1086D00001D2304600E03846064661684819324605
:1086E0004946FEF7D3FEB244B144BF1B3544A068EF
:1086F000A84200D10025E560002FD2D15046BDE848
:10870000F0872DE9F047044689461546E668A068DB
:10871000871BAF4208D9616888192A464946FEF787
:10872000B5FE7019E06010E0B846616888194246ED
:108730004946FEF7ABFEA5EB070809EB07014246E9
:108740006068FEF7A3FEC4F80C80BDE8F08702E085
:1087500008C8121F08C1002AFAD1704770470020CC
:1087600001E001C1121F002AFBD1704701462029F8
:1087700008DA012088400A4A104008B101207047F9
:108780000020FCE7402909DAA1F12000012202FAC9
:1087900000F008B10120F2E70020F0E70120EEE749
:1087A000FC06FFBD00BFEFF31081084672B67047AC
:1087B0000246002104E0505C08B101207047491CCA
:1087C0000629F8D30020F9E770B504460D4604F2F7
:1087D0002740FFF7EDFF0646012D06D0022D0DD0F4
:1087E000032D11D0042D19D113E0A07928B194F8EC
:1087F000240010B90EB1012070BD00BFE07910B1A6
:108800000EB10220F8E700BF207A08B10320F3E799
:1088100000BF607A08B10420EEE700BF0020EBE75C
:108820000146481C052290FBF2F302FB1300C0B284
:108830007047014691F82420012A01D1EE2000E082
:108840001F20704710B501220221002001F022FEF6
:10885000044600BF1CB1072C01D0204610BD00BF4C
:1088600007220221012001F015FE044600BF1CB1C1
:10887000072C01D02046F1E700BF0A22002108465C
:1088800001F008FE044600BF1CB1072C01D02046B1
:10889000E4E700BF0020E1E730B5ABB0AC216846AB
:1088A000FEF70DFE02208DF8000000208DF802007A
:1088B00005208DF803000121ADF84C1011491491E9
:1088C00001218DF87C104021229144F250612391C6
:1088D0000D48299069460D4800F023FC044600BF6E
:1088E00025463DB100BF0AA240F286412846FEF768
:1088F00093FC00BF00BF0121044800F00FFC2BB027
:1089000030BD0000182B002041F002006834002028
:108910002E2E5C2E2E5C2E2E5C6D61696E2E6300F9
:1089200070B50321084800F0C3FC044600BF25468B
:108930003DB100BF05A240F2C5412846FEF76CFCE0
:1089400000BF00BF70BD0000683400202E2E5C2EDA
:108950002E5C2E2E5C6D61696E2E630010B5044690
:10896000022001F02BFC10BD10B5002407E00749E0
:10897000096811F83400012105F01EFF641C044849
:1089800000788442F3D3002010BD00007033002033
:10899000743300202DE9F84306460D4617460A2F8A
:1089A00002D20720BDE8F88306F04EF838B905F08A
:1089B000DFFF044600BF204600B1F3E700BF1848C0
:1089C0000660184805701848076020211748FEF710
:1089D00076FD0021164A1160516015E006EBC508CE
:1089E00014480068009098F802008DF8010098F88B
:1089F0000000114A694605F035FF044600BF2046D5
:108A000000B1CFE700BF00BF281EA5F10101CDB224
:108A1000E4D10A4A00210A4800F044F9C2E7000004
:108A20007033002074330020783300208C520020F3
:108A3000A0330020BC1703000DBD0200FDB40200EE
:108A4000B81703002DE9FE4307460E46144672B6DA
:108A500000BF05F031F900BF00BF04F03BFE002865
:108A6000FBD100BF00BF012F0CD06FF48050384401
:108A700098B1B0F5405F2CD06FF440510844002805
:108A800047D115E03149324A891AC908012242EA20
:108A9000014030A105F01CF847E02C492C4A891A06
:108AA000C908012242EA014032A105F011F83CE078
:108AB00025462649DFF898C0A1EB0C01C9084FF004
:108AC000010C4CEA014034A1D5E9003205F016F85A
:108AD0002BE02546A86805F0C9FD8046D5E90010C1
:108AE0008DE8430019491A4BC91AC908012343EA02
:108AF000014043462FA1AA6805F024F81349144AFF
:108B0000891AC908012242EA014034A104F0E0FFB9
:108B10000BE00E490E4A891AC908012242EA0140B7
:108B2000324633A104F0DEFF00BF00BF00BF36486D
:108B3000006800F0010000B100BE00BF22463146CF
:108B4000384600F063F8BDE8FE830000742303009C
:108B5000FC220300534F46544445564943453A20AE
:108B6000415353455254494F4E204641494C454488
:108B700000000000534F46544445564943453A20AF
:108B8000494E56414C4944204D454D4F5259204184
:108B90004343455353000000415353455254494FFA
:108BA0004E204641494C45442061742025733A25A6
:108BB000750000004552524F52202575205B2573E9
:108BC0005D2061742025733A25750D0A504320619C
:108BD000743A20307825303878000000456E6420E3
:108BE0006F66206572726F72207265706F727400AA
:108BF000554E4B4E4F574E204641554C54206174B4
:108C00002030782530385800F0ED00E018B5012309
:108C100000939DF800301E4B186059609A606FF405
:108C20008043034463B1012B19D1194BDA60DB682F
:108C30001B68174CA3612346DB685B68E3610EE0A9
:108C4000134B1A611B699B68114C636123461B69B6
:108C50001B68A36123461B695B68E36100BF00BF1B
:108C60000B4B1B680A4B5B68094B9B68084BDB6826
:108C7000074B1B69064B5B69054B9B69044BDB6922
:108C800072B600BF9DF80030002BFBD162B618BD54
:108C9000AC52002010B5024802F0B2FC10BD00003A
:108CA000A833002030B503460C460AB9072030BD72
:108CB00019684FF0FF358D60CD604A61012C01D1FC
:108CC000012000E0002008610020F0E738B51348DB
:108CD000006800900823582211491248006803F0E8
:108CE000A1FD04460CB1204638BD0F4A69460F4825
:108CF00002F08CFC04460CB12046F5E701210B483C
:108D000002F02AFD01230A4A1946084802F04AFCEB
:108D10000120084908702046E6E70000D01703004C
:108D2000CC520020C0170300D1FD0200A833002060
:108D3000FFFF7F00B43300202DE9F84306460D46BF
:108D40009046344600200090684600F047F84FF007
:108D5000FF33D4E9021059405840014308D102F0D2
:108D6000B7FF401941F10001C4E90201012700E009
:108D700000279DF8000000F037F817B90020BDE883
:108D8000F883C4F81880206900B1256121460020CD
:108D900007F07EFEF3E7F8B5044625460020009074
:108DA000684600F01BF84FF0FF33D5E90210594038
:108DB0005840014301D1002604E04FF0FF31A96083
:108DC000E96001269DF8000000F00EF80EB90020C1
:108DD000F8BD2946012007F05BFEF9E710B504460F
:108DE000204607F009F910BD70B5044625460E4827
:108DF0008068B0B1ADB9FFF7D5FC06460A480068F7
:108E00000A490860084840684FF0E021C1F80401B1
:108E10000020054988601EB900BF62B600BF00BFD0
:108E200000BF00BF70BD00003453002000E100E02F
:108E3000F8B505460C4617462088001DB84201D9F2
:108E40000C20F8BD684679DF064600BF304600B109
:108E5000F7E700BF0320218868542088401C208049
:108E60001920218868542088401C208020884119BE
:108E7000BDF8000008F02DFA218808442080002069
:108E8000DFE70000002114E00C48D0F81024012393
:108E900008E000BFD0680079884201D1002303E0D8
:108EA000D0680268002AF4D100BF0BB108467047B1
:108EB000491C0A29E8DB4FF0FF30F8E7E4540020B2
:108EC0002DE9F04104460F46154615B90E20BDE8C0
:108ED000F0810020286000BF0CB90E20F7E700BF2A
:108EE00000BF206808B90E20F1E700BF00BFE0888E
:108EF000C11700EB91718910A0EB810109B1072026
:108F0000E5E700BF384600F0DBFAC6B2142E01D107
:108F10000520DCE72079B04201DC0420D7E7E188B6
:108F2000206806FB010028600020D0E72DE9FC4105
:108F3000054688461646002437880020308095F87C
:108F40002D0058B13A463146404600F0D1FA044669
:108F500000BF204608B1BDE8FC8100BFA87850B131
:108F60003A4631464046FFF763FF044600BF2046BD
:108F700000B1F0E700BFE87860B1E97848B23B465D
:108F80003246414602F04CFD044600BF204600B187
:108F9000E1E700BF686868B1696891F900003B4685
:108FA0003246414608F074F9044600BF204600B13D
:108FB000D1E700BF288900280EDD434606220221A2
:108FC00005F10800CDE9006708F054FA044600BF37
:108FD000204600B1BFE700BF288A00280EDD4346C7
:108FE0000722032105F11000CDE9006708F042FADD
:108FF000044600BF204600B1ADE700BF288B002823
:109000000EDD43461522142105F11800CDE9006755
:1090100008F030FA044600BF204600B19BE700BFCD
:10902000286A58B13B4632464146286A02F0B1F8F8
:10903000044600BF204600B18DE700BF686A58B102
:109040003B4632464146686A03F0BCF9044600BF1D
:10905000204600B17FE700BF95F82C0000280BDD0B
:109060003B4632464146284607F0CEF8044600BF4C
:10907000204600B16FE700BF287858B13B46324622
:109080004146284603F05AFA044600BF204600B184
:1090900061E700BF20465EE7F8B504460E46154678
:1090A000002000902B466A463146204600F008F822
:1090B00007460FB90020F8BDBDF800002044FAE7CC
:1090C000F0B504460D461E4604B10AB90020F0BDB5
:1090D000002103E0605C401C084481B2481CA842A7
:1090E00006DA10888842F5DC481C205CB042F1D1D9
:1090F000A94201DB0020EAE7881C87B2605C10B15E
:10910000605C401E00E0002083B213B1F818A84252
:1091100001DD0020DBE717801846D8E780F8301023
:10912000704770B504460D4605B10CB90E2070BDF0
:1091300005F1780001F0D6FF08B90720F7E7002015
:10914000A0702C2205F17801201DFEF79FF9002068
:1091500084F83000D5F8A4006063D5F8A800A063B7
:109160004FF6FF70A4F8240404F58260C4F82004CC
:10917000002140F22C40C4F82614A4F82A1401550A
:10918000207810B9FF2084F8540004F15500C4F889
:1091900010042046FFF74DFB40F21441085304F23F
:1091A000144204F155012846FFF7C0FE064600BFF1
:1091B000304600B1BBE700BF04F231204FF48361B9
:1091C00008512046FFF735FBA4F81C044FF48360D8
:1091D000015904F21C4205F13C00FFF7A7FE0646C8
:1091E00000BF304600B1A2E700BF01215120015568
:1091F000208B81B248200153012084F83C000021DB
:109200002164502001556169616404F13C02002130
:1092100004F1540072DF064600BF304600B186E715
:1092200000BF01202070304681E770B504460D462E
:109230002E462088102804D0112807D026280FD1C8
:1092400009E02146304605F0E3FF0AE021463046BA
:1092500006F08DF905E02146304606F030FB00E0CF
:1092600000BF00BF70BD70B5044694F8540074DFB1
:10927000012084F82E04002084F8300400215020BE
:1092800001550621204602F0E6FB054600BF2846B0
:1092900000B170BD00BFA178204600F009F8054676
:1092A00025B1A06B10B12846A16B88470020F0E7DC
:1092B00070B504460E46207808B9082070BDA67027
:1092C000002140F22C40C4F82614A4F82A140155B9
:1092D000A07910B1A078012809D0E07910B1A07868
:1092E000012804D0E07970B1A07802280BD1606B1E
:1092F00030B1012084F82D040820616B884702E01A
:10930000002084F82D0431462046FFF75DFAA07056
:10931000606BA0B1A078032802D0A07804280ED1F9
:10932000607960B194F82E0448B9002084F83004C4
:10933000012084F82F040720616B884702E0002099
:1093400084F82F04182104F13C00FEF7B8F801203E
:1093500084F83C0004F12C0006F058FB20B194F88E
:109360002C105120015502E001215120015594F8A3
:10937000240060B104F1280006F048FB20B194F805
:1093800028105220015502E00121522001550021F0
:1093900050200155A078052824D2DFE800F01F03F3
:1093A0000A11180004F13C01204606F0CDFF0546E5
:1093B00019E004F13C01204606F0AEFF054612E03C
:1093C00004F13C01204606F0D1FF05460BE004F114
:1093D0003C01204606F0F8FF054604E0002084F832
:1093E000310000E000BF00BFA07898B104F13C025A
:1093F00004F15400D4F8201472DF05460DB128465C
:109400005CE794F8301094F8540073DF05460DB112
:10941000284653E7606B18B194F83100616B8847B8
:1094200000204BE72DE9F041044600BF14B90E209F
:10943000BDE8F08100BF1C2221461C48FEF726F83B
:109440001B481A490860206860B120687ADF054629
:109450000DB12846ECE7164821680A6802604968A1
:10946000416005E012487BDF05460DB12846DFE785
:10947000002617E006EB86000E4901EB800700BFCF
:109480004FF6FF70388000BF0B4800EB4610786045
:109490000A4A0021381DFFF705FC05460DB10320DF
:1094A000C6E7761C002EE5D00020C1E7F45000206E
:1094B00040330020E0500020C050002099130300EA
:1094C00010B50446204600F005F808B1204610BD4E
:1094D0001420FCE710B50446142C01DB002010BD5D
:1094E0002146024803F0F9F9F9E700001451002081
:1094F0002DE9FC4105460C46174620880930B84244
:1095000002D90C20BDE8FC8168466DDF064600BF2D
:10951000304600B1F6E700BF082021886854208853
:10952000401C20801B20218868542088401C2080FB
:1095300020882844DDF801100160BDF80510818005
:109540002088801D20809DF80000400818B9002068
:109550002188685402E00120218868542088401C3A
:1095600020800020CEE70000F8B505460F46288889
:1095700021284DD006DC10280BD0112839D0132813
:1095800077D162E03B2875D0522875D05628F7D1A4
:1095900097E05649564A891AC908032242EA01400F
:1095A00054A104F095FA072000F0A2FF044600BF82
:1095B00026463EB100BF52A24FF460713046FDF71F
:1095C0002BFE00BF00BFA8885149088008460188CB
:1095D000504803F027FB044600BF26463EB100BFBB
:1095E00047A240F283313046FDF716FE00BF00BFB0
:1095F00079E03E493E4A891AC908032242EA0140FD
:1096000045A104F065FA4FF6FF70414908806AE011
:109610003649374A891AC908042242EA014042A160
:1096200004F056FA00200090A88869468FDF0446AF
:1096300000BF26463EB100BF31A240F29531304610
:10964000FDF7EAFD00BF00BF4DE000231A4685216B
:109650002F4800887FDF044600BF26463EB100BF8A
:1096600027A240F29B313046FDF7D6FD00BF00BF78
:1096700039E037E014E0FFE700231A461946244892
:109680000088B1DF044600BF26463EB100BF1CA2E1
:1096900040F2A1313046FDF7BFFD00BF00BF22E020
:1096A000A888132176DF044600BF26463EB100BFDE
:1096B00013A24FF46A713046FDF7AEFD00BF00BF44
:1096C00011E0A888132176DF044600BF26463EB18C
:1096D00000BF0BA240F2AF313046FDF79DFD00BF49
:1096E00000BF00E000BF00BFF8BD0000742303000E
:1096F000FC220300436F6E6E6563746564000000B6
:109700002E2E5C2E2E5C2E2E5C6D61696E2E6300FB
:10971000142B00205C340020446973636F6E6E6507
:1097200063746564000000005048592075706461DE
:10973000746520726571756573742E0070B5054689
:109740000E462888102802D011282CD115E0174881
:10975000006860B901F0C8FD044600BF34B1144888
:10976000006818B1204612490968884700BF0F48B1
:109770000068401C0D49086016E00C480068401E57
:109780000A4908600846006860B9FFF75BF80446BC
:1097900000BF34B10648006818B120460449096882
:1097A000884700BF00E000BF00BF70BD3C33002011
:1097B0003833002070B504460D462088102806D0A6
:1097C000112808D012280ED0502810D107E02046CA
:1097D00005F0ACFC0CE0204605F0B0FE08E02046A9
:1097E00006F09EF804E0204605F088FC00E000BF8B
:1097F00000BF70BD2DE9F04104460F46A6882088C1
:10980000102806D0112819D019283FD01A284AD17B
:1098100018E006F0AFFA304606F088FA30B900BF1B
:1098200022A2F0210420FDF7F7FC06E0E07B0228ED
:1098300003D131462C4803F05FF834E0304606F09F
:10984000BDFA30E0207A0509042D01DB012000E09B
:1098500000200246314624480C3002F0D2F8032D95
:1098600001DB012000E00020024631461E4808309E
:1098700002F0C7F8022D01DB012000E000200246C3
:1098800031461948001D02F0BCF80CE0207A48B9B6
:10989000607AC0F3C0052A46314613480C3002F006
:1098A000B0F800BF00BF00BFBDE8F0812E2E5C2ED7
:1098B0002E5C2E2E5C2E2E5C2E2E5C2E2E5C636F6C
:1098C0006D706F6E656E74735C626C655C636F6DFA
:1098D0006D6F6E5C626C655F636F6E6E5F737461FB
:1098E00074652E63000000001C5100202DE9F0413A
:1098F00086B00446884617461D4600BF1CB90E2098
:1099000006B0BDE8F08100BF01AA29466069FFF7F3
:10991000D7FA064600BF304600B1F1E700BF4FF668
:10992000FF70854201D0019808B90520E8E7019849
:10993000007808B90820E3E73888F42801DD07201B
:10994000DEE700200290039004900590A088ADF817
:109950000800CDF81480049701208DF80A0002A9B0
:109960002846AEDFCCE7000070B58EB004460E4648
:109970003E4B0FCB09AD0FC500BF14B90E200EB082
:1099800070BD00BF00BF0EB90E20F8E700BF306801
:10999000A061214609A862DF054600BF284600B144
:1099A000EDE700BF20788DF836000120ADF83400D7
:1099B000A21C0DA9A8DF054600BF284600B1DEE7BE
:1099C00000BF202101A8FDF77AFD0220ADF80400B8
:1099D00020788DF80600F420ADF808000120ADF8DD
:1099E0000A008DF810009DF8110020F008000830E2
:1099F0008DF811009DF8110020F00400001D8DF875
:109A0000110001208DF815008DF81600608804F112
:109A10000C0201A901F032F905460DB12846AEE766
:109A2000202101A8FDF74BFD0320ADF804002078AC
:109A30008DF80600F420ADF808000120ADF80A000A
:109A40008DF810009DF8110020F0100010308DF8F6
:109A5000110001208DF815008DF816008DF8170003
:109A60006088221D01A901F009F988E7DC160300CE
:109A700070B504460D4605B104B970BD2E46208868
:109A8000102804D0502807D057280FD109E02146CC
:109A9000304605F083FB0AE02146304605F06CFFB6
:109AA00005E02146304605F0A3FE00E000BF00BF00
:109AB00000BFE2E770B50446204607F004FC054607
:109AC00005F0010070BD000038B504F07DFC0446CF
:109AD00000BF25463DB100BF15A240F2C231284665
:109AE000FDF79AFB00BF00BF0020009069460120EF
:109AF00004F098FA044600BF25463DB100BF0CA211
:109B00004FF472712846FDF787FB00BF00BF68461F
:109B100004F056FB044600BF25463DB100BF04A239
:109B20004FF473712846FDF777FB00BF00BF38BDC7
:109B30002E2E5C2E2E5C2E2E5C6D61696E2E6300C7
:109B400010B52DED048BB648B0F90000FDF7B3FD5C
:109B500041EC190B9FEDB30B53EC102BFDF7CAFC36
:109B600041EC180BFDF7F0FDB0490860B048B0F9C2
:109B70000000FDF7A0FD41EC190B9FEDAA0B53EC83
:109B8000102BFDF7B7FC41EC180BFDF7DDFDA949E3
:109B90000860A948B0F90000FDF78DFD41EC190BF4
:109BA0009FEDA00B53EC102BFDF7A4FC41EC180B20
:109BB000FDF7CAFDA1490860A148B0F90000FDF712
:109BC0007AFD41EC190B9FED9F0B53EC102BFDF729
:109BD00003FD41EC180BFDF7B7FD9C4908609C485C
:109BE000B0F90000FDF767FD41EC190B9FED950BF7
:109BF00053EC102BFDF7F0FC41EC180BFDF7A4FD26
:109C0000944908609448B0F90000FDF754FD41EC18
:109C1000190B9FED8C0B53EC102BFDF7DDFC41EC89
:109C2000180BFDF791FD8D4908608D48B0F90000D3
:109C3000FDF741FD41EC190B9FED820B53EC102B0E
:109C4000FDF758FC41EC180BFDF77EFD85490860D7
:109C50008548B0F90000FDF72EFD41EC190B9FED92
:109C6000790B53EC102BFDF745FC41EC180BFDF77D
:109C70006BFD7E4908607E48B0F90000FDF71BFDD2
:109C800041EC190B9FED6F0B53EC102BFDF732FCE1
:109C900041EC180BFDF758FD764908607648B0F99D
:109CA0000000FDF708FD41EC190B9FED660B53EC2E
:109CB000102BFDF791FC41EC180BFDF745FD6F49AA
:109CC00008606F48B0F90000FDF7F5FC41EC190B96
:109CD0009FED5C0B53EC102BFDF77EFC41EC180B59
:109CE000FDF732FD674908606748B0F90000FDF7ED
:109CF000E2FC41EC190B9FED530B53EC102BFDF7DD
:109D00006BFC41EC180BFDF71FFD604908606048D3
:109D1000B0F90000FDF7CFFC41EC190B9FED5D0B96
:109D200053EC102BFDF758FC41EC180BFDF70CFD24
:109D30005A4908605A48B0F90000FDF7BCFC41ECF4
:109D4000190B9FED540B53EC102BFDF745FC41EC28
:109D5000180BFDF7F9FC534908605348B0F90000AF
:109D6000FDF7A9FC41EC190B9FED4A0B53EC102BAE
:109D7000FDF732FC41EC180BFDF7E6FC4B4908609F
:109D80004B48B0F90000FDF796FC41EC190B9FED34
:109D9000410B53EC102BFDF71FFC41EC180BFDF7AA
:109DA000D3FC444908604448B0F90000FDF783FC47
:109DB00041EC190B9FED1B0B53EC102BFDF79AFB9D
:109DC00041EC180BFDF7C0FC3C4908603C48B0F979
:109DD0000000FDF770FC41EC190B9FED120B53ECEA
:109DE000102BFDF787FB41EC180BFDF7ADFC354957
:109DF00008603548B0F90000FDF75DFC41EC190B37
:109E00009FED080B53EC102BFDF774FB41EC180B86
:109E1000FDF79AFC2D490860BDEC048B10BD0000D5
:109E2000502B00207B14AE47E17A843F8C2B00201E
:109E3000522B0020902B0020542B0020942B00202C
:109E4000562B00200000000000003040982B00201E
:109E5000582B00209C2B00205A2B0020A02B0020E8
:109E60005C2B0020A42B00205E2B0020A82B0020C0
:109E7000602B0020AC2B0020622B0020B02B002098
:109E8000642B0020B42B0020662B0020B82B002070
:109E90006E2B0020000000000000D040C82B0020E6
:109EA000702B0020CC2B0020722B0020D02B002008
:109EB000742B0020D42B0020682B0020BC2B00200A
:109EC0006A2B0020C02B00206C2B0020C42B00200C
:109ED00070B500220721282007F050F900213D200D
:109EE00000F01EF9192002F021FF20213F2000F090
:109EF00017F940F28A2002F019FF002400250AE039
:109F0000002000F057F80446A02C00D105E00A20FC
:109F100002F00CFF6D1CC82DF2DB00BFA02C0BD093
:109F200019491A4A891AC908032242EA014018A1AC
:109F300003F0CEFD1C4804700721282006F01BFF0B
:109F40001A4908703E213D2000F0EAF80A2002F08C
:109F5000EDFE0021072000F0E3F800213B2000F097
:109F6000DFF88F213F2000F0DBF80A2002F0DEFE50
:109F70000C213D2000F0D4F8192002F0D7FE01207A
:109F80000B49087070BD000074230300FC2203001D
:109F9000424E4F30353520434849502049442045F2
:109FA00052524F5200000000D82B0020D92B002025
:109FB000762B002010B504462146282006F0DBFE53
:109FC00010BD7CB506460C46154606236A46082198
:109FD000282006F0DDFE9DF800009DF8011040EA03
:109FE000012000B230809DF802009DF8031040EA85
:109FF000012000B220809DF804009DF8051040EA81
:10A00000012000B228807CBD7CB506460C46154672
:10A0100006236A462021282006F0BAFE9DF800009B
:10A020009DF8011040EA012000B230809DF8020046
:10A030009DF8031040EA012000B220809DF8040042
:10A040009DF8051040EA012000B228807CBD7CB557
:10A0500006460C46154606236A462E21282006F0A1
:10A0600097FE9DF800009DF8011040EA012000B223
:10A0700030809DF802009DF8031040EA012000B2F4
:10A0800020809DF804009DF8051040EA012000B2F0
:10A0900028807CBD7CB506460C46154606236A46DC
:10A0A0001421282006F074FE9DF800009DF8011090
:10A0B00040EA012000B230809DF802009DF80310B4
:10A0C00040EA012000B220809DF804009DF80510B0
:10A0D00040EA012000B228807CBD7CB506460C46D3
:10A0E000154606236A460E21282006F051FE9DF8EB
:10A0F00000009DF8011040EA012000B230809DF878
:10A1000002009DF8031040EA012000B220809DF873
:10A1100004009DF8051040EA012000B228807CBDB3
:10A1200070B504460D462A462146282007F026F839
:10A1300070BD000001460148405C70479416030062
:10A14000F8B504460A48005D0090684603F004F93B
:10A15000064600BFD6F810050099C84000F001007F
:10A1600008B1012000E00020054685F00100F8BD9F
:10A17000941603007CB500240DE00848055D032615
:10A18000002000903346024601460190284602F026
:10A19000F0FF00BF641C042CEFD37CBD94160300B9
:10A1A00010B5044604F0010008B100F051F804F0C5
:10A1B000020008B1FFF7DEFF10BD0000F8B505464C
:10A1C0000B48405D0090684603F0C6F80446D4F89A
:10A1D0000465012000998840B043C4F808050120B7
:10A1E000009988403040C4F80C0500BFF8BD00005D
:10A1F0009016030010B504460249085D012103F0E2
:10A2000037F910BD9016030010B504460249085DE9
:10A21000002103F02DF910BD90160300F8B5044697
:10A220000A48005D0090684603F096F8064600BFB5
:10A23000D6F804050099C84000F0010008B10120DB
:10A2400000E00020054685F00100F8BD90160300EF
:10A250007CB500240CE00948055D00200090034611
:10A26000012211460190284602F083FF00BF641CC2
:10A27000042CF0D300F004F87CBD0000901603001D
:10A2800010B5002403E02046FFF7B4FF641C042C43
:10A29000F9D310BD10B5002403E02046FFF7B4FF4A
:10A2A000641C042CF9D310BD02464FF0FF3000218E
:10A2B00006E0054B5B5C934201D1084602E0491C75
:10A2C0000429F6D300BF70479416030070B5054605
:10A2D0000C4600260648056014B1204606F03EFAFA
:10A2E0000448006810B9FEF7ADFA0646304670BD66
:10A2F000383300203C33002010B5002000F022FB52
:10A30000044600BF1CB1062C01D0204610BD00BF82
:10A31000012000F017FB044600BF1CB1062C01D041
:10A320002046F3E700BF0020F0E700002DE9F041F0
:10A3300006460F464FF0000800243046FFF7B4FFF2
:10A340000446042C3ED20FB3012F02D0022F38D185
:10A3500030E004EB4400214911F8008004EB440094
:10A360000844407850B11E4A4FF480411D480068AF
:10A37000FEF7E2FC05460DB91948067004EB4400EF
:10A38000164908448078184908551AE015480068AD
:10A39000FEF701FD1448005D04EB44010F4A11442F
:10A3A0008978884205D104EB44001146084490F8AE
:10A3B000028006E004EB44000849084490F801805C
:10A3C00000BF00BFB8F1000F06D00848006818B100
:10A3D0004046064909688847BDE8F081B45000202E
:10A3E00030330020A0160300313300200833002052
:10A3F00010B50446042C03D22046FFF7A1FE10BD81
:10A400000020FCE770B50546042D06D0072D18D0B6
:10A410000A2D2FD106F066F82DE013211748008889
:10A4200076DF0446082C0BD000BF26463EB100BFA5
:10A4300013A240F2FF313046FCF7EEFE00BF00BF32
:10A4400019E00E4800884FF6FF71884211D110487C
:10A45000FEF709FF0446082C0BD000BF26463EB18C
:10A4600000BF07A240F209413046FCF7D5FE00BF0D
:10A4700000BF00E000BF00BF70BD0000142B002033
:10A480002E2E5C2E2E5C2E2E5C6D61696E2E63006E
:10A490006834002030B503460020042B23D2012A63
:10A4A00007D1012903D103F10E04E4B200E0002436
:10A4B000224679B1012902D0022911D104E003EB2F
:10A4C00043040A4D2A550DE003EB4304074D2C4489
:10A4D000627007E003EB4304044D2C44A27001E0DA
:10A4E000072000BF00E0072030BD0000B45000206E
:10A4F00070B5044600250548007800F0010018B149
:10A50000204600F05BF80546284670BDBC320020AE
:10A510002DE9F04105460F4600241F4805601F48FD
:10A52000076005F0020000B3002606E00122114694
:10A530003046FFF7AFFF0446761C042E01D2002CF4
:10A54000F4D034B940F2333204211548FEF722FA30
:10A55000044614B9FEF708FA04462CB9114A002142
:10A560001148FEF79FFB044600BF05F0010080B1D3
:10A570000120FFF715FE2CB90C4A00210C48FEF70C
:10A5800091FB04462CB90B4A01210B48FEF78AFBCC
:10A5900004462046BDE8F081BC320020083300208C
:10A5A000A4160300ADAA0200A016030085BF020096
:10A5B000981603005D8902009C1603002DE9F04700
:10A5C000044600260025DA48007820B10020D8494A
:10A5D000087001F0C3FC182C7ED2DFE804F00C16E2
:10A5E000174A7EB2F6F4F3F2F1F0EFEEEDECEBEA9F
:10A5F000E9E8E7E6E5E401F0B1FCCE480068FEF7E3
:10A60000CAFB0646CC4804708DE100BF0020FFF76E
:10A6100005FE58B10020FFF7EDFD022C02D14FF4EA
:10A62000E16001E04FF47A60054609E00020FFF7A1
:10A63000EBFD022C01D1C82001E04FF4C8700546A3
:10A64000BD4804704FF40040A5FB00104FF47A732E
:10A65000CF1840F100015A0000233846FCF7D2FE23
:10A66000814600224946B3480068FEF765FB06466E
:10A6700059E10020FFF7D2FD58B10020FFF7BAFDE5
:10A68000032C02D14FF4487001E04FF47A60054684
:10A6900009E00020FFF7B8FD032C01D1C82001E03C
:10A6A0004FF4C8700546A44804704FF40040A5FB61
:10A6B00000104FF47A728F1840F10001520000230D
:10A6C0003846FCF79FFE81460022494699480068BB
:10A6D000FEF732FB064626E124E10020FFF79EFD4F
:10A6E00058B10020FFF786FD042C02D14FF47A60A8
:10A6F00001E04FF47A6005460AE00020FFF784FD90
:10A70000042C02D14FF4C87001E04FF4C870054624
:10A71000894804704FF40040A5FB00104FF47A7391
:10A72000CF1840F100015A0000233846FCF76AFEBA
:10A730008146002249467F480068FEF7FDFA06463A
:10A74000F1E00020FFF76AFD50B10020FFF752FD55
:10A75000052C01D1C82001E04FF47A60054609E0DC
:10A760000020FFF751FD052C01D1C82001E04FF476
:10A77000C8700546704804704FF40040A5FB0020E7
:10A780004FF47A73D71840F100015A00002338467D
:10A79000FCF738FE81460022494666480068FEF70D
:10A7A000CBFA0646BFE0B8E0B6E0AAE0A1E098E048
:10A7B00092E05FE05DE05BE059E057E051E042E0AD
:10A7C00033E024E015E00EE0FFE70020FFF7F6FCA1
:10A7D00059480470002240F2666156480068FEF74E
:10A7E000ABFA06469FE00020FFF70EFD52480470CA
:10A7F00099E001204E490870FFF7E0FC002240F28A
:10A8000066614C480068FEF797FA06468BE0012027
:10A8100047490870FFF7D2FC00224FF40051454829
:10A820000068FEF789FA06467DE00120404908707D
:10A83000FFF7C4FC002240F266613E480068FEF764
:10A840007BFA06466FE0012039490870FFF7B6FC35
:10A8500000224FF4005137480068FEF76DFA0646B3
:10A8600061E0FFF717FD344804705CE000BF00BFF3
:10A8700000BF00BF31480068FEF78DFA0646C4F1FC
:10A88000110515B30EBB012D18D9A8B2C821484334
:10A890004FF4004180FB01104FF47A728F1840F1A1
:10A8A0000001520000233846FCF7ACFD814600222F
:10A8B000494622480068FEF73FFA06460220FFF7A5
:10A8C000A3FC01201E49087005E00220FFF792FC5E
:10A8D00000201B49087026E001F040FB1648047078
:10A8E00021E001F03BFB0020FFF78EFC12480470D2
:10A8F00019E001F033FB0120FFF786FC0E480470DD
:10A9000011E001F02BFB0020FFF77EFC0120FFF798
:10A910007BFC0948047006E000BFFFF7BBFC06485B
:10A92000047000E000BF00BF3046BDE8F0870000C3
:10A93000B932002098160300B83200209C1603009C
:10A94000C032002010B504460121204606F024FE46
:10A9500010BD00002DE9FC4704460D461646A71C15
:10A960004FF001080020019001A8FEF737FA3048A7
:10A97000406828602E4840682D498968411A2D4852
:10A980000068401CA0EB010915E001212A4801F0F4
:10A99000D0FF01F03FFB82465146274801F0C9FF36
:10A9A0002348406822498968411A22480068401CAF
:10A9B000A0EB010900BF4F45E7D8B8F1000F30D038
:10A9C0000021009176B1009921F00301491C00910A
:10A9D000009921F00401091D0091009964F3891187
:10A9E00000910DE0009921F00301891C009100996C
:10A9F00021F00401091D0091009964F39F51009119
:10AA00000B4949680B4A12681140094A0C3202EBA3
:10AA10008100009901600649496839440C3A516047
:10AA200000BF9DF80400FEF7DFF94046BDE8FC8753
:10AA3000E4540020FC3300200059002070B5044687
:10AA40000D460A2D03D10D212046FFF7F7FFA1681F
:10AA5000481CA06020684554D4E90110884202D304
:10AA6000204602F066FA70BD0448806803494968D0
:10AA7000884201D1012070470020FCE7E454002007
:10AA80000246002108E0074B1B6803EBC100037876
:10AA9000934200D17047491C034800788142F2DBA1
:10AAA0000020F7E7703300207433002010B504460F
:10AAB00020780221FFF73AFC10BD0000F8B50546EA
:10AAC00015490320FFF724FD044600BF26463EB18A
:10AAD00000BF12A240F295413046FCF79DFB00BF3B
:10AAE00000BF69460020FFF7F1FB044600BF264681
:10AAF0003EB100BF09A24FF493613046FCF78CFBD6
:10AB000000BF00BF9DF80000022801D1012000E035
:10AB100000202870F8BD000005A402002E2E5C2E37
:10AB20002E5C2E2E5C6D61696E2E6300DFED200AB7
:10AB3000B0EE600A002038E0002131E001282EDB71
:10AB400009282CDC00EB400202EBC002194B03EB9E
:10AB5000820202EB8102D2ED000A60EE800A00EB75
:10AB6000400202EBC002144B03EB820202EB8102B3
:10AB7000C2ED000A00EB400202EBC00203EB8202CE
:10AB800002EB8102D2ED000A00EB400202EBC002B0
:10AB9000084B03EB820202EB8102C2ED000A491C62
:10ABA000064A12789142C9DB401C0F28C4DB70476B
:10ABB00014AE473F2030002024440020282B0020E2
:10ABC0004FF0FF31054A42F82010082804DBFF232C
:10ABD000A0F108016032535470470000A0510020DA
:10ABE0000146024850F8210070470000A0510020A3
:10ABF0002DE9F04F03460C464FF0FF390AB1002013
:10AC000000E0082084460AB1082000E00C208046BD
:10AC1000614624E0154850F82100401CF0B91D465B
:10AC20000846274616464FFA80FBDFF840A00AF197
:10AC3000300A0AF805B0DFF834A04AF820704EB99F
:10AC40004FFA85FBA0F1080ADFF820E00EF1600E54
:10AC50000EF80AB000BF4FFA81F902E0491C4145E5
:10AC6000D8D300BF4846BDE8F08F0000A0510020B7
:10AC70000146014840567047D051002070B590B051
:10AC800006460C461546A07818B901208DF80E002E
:10AC900002E0A0788DF80E002088ADF80C000020AE
:10ACA0000290607C02A905F0BDFBA07C0DF10901BA
:10ACB00005F0B8FBE07B08B1012000E000209DF822
:10ACC0000A1060F3C3018DF80A10207C08B101203E
:10ACD00000E000209DF80A1060F304118DF80A10BE
:10ACE000207B08B1012000E000209DF80A1060F3ED
:10ACF00000018DF80A10207D08B1022000E001203B
:10AD00009DF80A1060F342018DF80A101C2109A871
:10AD1000FCF7D5FB607BC0F3001018B9607BC0F373
:10AD20004010F8B100200090E07C0DF1010105F029
:10AD300079FB00BF9DF8000020F00F00401C8DF84B
:10AD400000009DF8000020F0F00010308DF80000A9
:10AD500000BF9DF8020020F00600801C8DF8020064
:10AD6000CDF838D0607B8DF82400A07B8DF82500CD
:10AD7000142104A8FCF7A3FB03A8049002A80590E3
:10AD8000A088ADF81C00A06820B1E088ADF81800DC
:10AD9000A0680890A069002849D000200190A0690F
:10ADA0000088ADF82C00A0694088ADF82E00A0699D
:10ADB00040680A9001A80D90A169087B01A905F0DF
:10ADC00031FBA169487B0DF1050105F02BFBA06962
:10ADD000807A08B1012000E000209DF8061060F3A1
:10ADE000C3018DF80610A069C07A08B1012000E007
:10ADF00000209DF8061060F304118DF80610A0697C
:10AE0000007A08B1012000E000209DF8061060F3F0
:10AE100000018DF80610A069807B08B1022000E0D7
:10AE200001209DF8061060F342018DF80610E069DC
:10AE300008B1E0690C902B4604AA09A93046AADFA4
:10AE400010B070BD70B505460DB9094C01E0084C55
:10AE5000083409E0204601F068F8064606B904E027
:10AE600028467168884700BFF4E700BF70BD000046
:10AE70009451002010B504462CB9012006494870B1
:10AE80000020FFF7DFFF012C04D101200249887068
:10AE9000FFF7D8FF10BD00008C5100202DE9F047CE
:10AEA000024613468C46D3E90245DCE90267B6EB5D
:10AEB000040877EB050002D30120BDE8F0870020ED
:10AEC000FBE7000070B52DED028B0024F4E00025B7
:10AED000EBE004EB440000EBC4007A4901EB800096
:10AEE00000EB850090ED000A774800EB8400D0ED80
:10AEF000000AB4EE600AF1EE10FA0DD100EE105A1D
:10AF0000B8EEC00A7148D0ED000A20EE200A704861
:10AF100000EB840080ED000A04EB440000EBC40069
:10AF2000684901EB800000EB850090ED000A66485F
:10AF300000EB8400D0ED000AB4EEE00AF1EE10FA66
:10AF400050D204EB440000EBC40001EB8001681C0C
:10AF500001EB800090ED000A5B4800EB8400D0ED2F
:10AF6000000AB4EEE00AF1EE10FA3BDD04EB440017
:10AF700000EBC400534901EB8001681C01EB800029
:10AF800090ED000A04EB440000EBC4004D4901EBD6
:10AF9000800000EB8500D0ED000A30EE600A04EB83
:10AFA000440000EBC40001EB800000EB8500D0ED15
:10AFB000000A454800EB840090ED001A31EE601A5B
:10AFC000C1EE000A00EE105AB8EEC00A30EE800A58
:10AFD0003E48D0ED000A20EE200A3D4800EB8400F8
:10AFE00080ED000A384800EB840090ED000A04EB85
:10AFF000440000EBC400334901EB8000D0ED000AAF
:10B00000B4EEE00AF1EE10FA0BD2304890ED000AEF
:10B01000DFED300A20EE200A2D4800EB840080EDA1
:10B02000000A04EB440000EBC400264901EB800158
:10B0300029480078401E01EB800090ED000A22486C
:10B0400000EB8400D0ED000AB4EEE00AF1EE10FA55
:10B0500010D221480078401E00EE100AB8EEC00A57
:10B060001A48D0ED000A20EE200A194800EB8400AF
:10B0700080ED000A164800EB840090ED000A10EE07
:10B08000101A0846FCF735FB41EC180B9FED130B2B
:10B0900053EC102BFCF740FB06D2B1EE040A0C482F
:10B0A00000EB840080ED000A6D1C0B48007885429F
:10B0B000FFF60FAF601CC4B20F2CFFF608AFBDEC5B
:10B0C000028B70BD2030002014410020242B002072
:10B0D0009C38002000000000282B00200000000009
:10B0E0000000144001468878012805D191F820001D
:10B0F000012801D1002070470120FCE733B58BB057
:10B100000546002000900C9878B100240BE0214601
:10B110000CA801F0E2FB28B1009A501C009001A895
:10B1200020F81240641C142CF1D32C2269462846C6
:10B13000FCF7ACF90DB030BD01460888062808DBE5
:10B140000888B0F5486F06DD08884FF6FF72904218
:10B1500001D0072070474888062808DB4888B0F5EA
:10B16000486F06DD48884FF6FF72904201D00720F5
:10B17000F0E708884FF6FF72904208D04888904266
:10B1800005D008884A88904201DD0720E2E70020C8
:10B19000E0E72DE9F04107460D4614469846208821
:10B1A000801D404502D90C20BDE8F0813846FFF7EC
:10B1B000C3FF064600BF304600B1F5E700BF0520DB
:10B1C000218868542088401C2080122021886854DF
:10B1D0002088401C208022885119388806F079F890
:10B1E00021880844208022885119788806F071F857
:10B1F0002188084420800020D6E7000010B50446CE
:10B2000000BF04A240F22B312046FCF705F800BF36
:10B2100010BD00002E2E5C2E2E5C2E2E5C6D616902
:10B220006E2E630030B587B01C216846FCF747F9E5
:10B23000002000904FF4A03001904FF4F0200290D5
:10B2400003208DF80C000020ADF80E008DF81000E2
:10B250000A4805900A4806906846FEF7E3F8044657
:10B2600000BF25463DB100BF06A240F2423128464C
:10B27000FBF7D2FF00BF00BF07B030BDBDF002003A
:10B28000FDB102002E2E5C2E2E5C2E2E5C6D6169AF
:10B290006E2E6300F8B505460C46607A88B9207AB0
:10B2A00010B91048476801E00E4887682A463946B9
:10B2B0006068FDF741FD064616B1304604F044FFD4
:10B2C0000EE0002020720748406948B101208DF847
:10B2D0000000ADF80250034841696846884700BF46
:10B2E000F8BD0000F450002010B5012200210846EE
:10B2F000FFF7D0F8044600BF1CB1072C01D0204650
:10B3000010BD00BF072202210120FFF7C3F8044649
:10B3100000BF1CB1072C01D02046F1E700BF04227A
:10B3200002210020FFF7B6F8044600BF1CB1072C2D
:10B3300001D02046E4E700BF0020E1E770B52DED25
:10B34000068B0446002500269FED1B0AB0EE408ABE
:10B350009FED190AF0EE408A1F2000EAD46524F020
:10B3600078462846FCF7B8F941EC1A0B9FED130B11
:10B3700053EC102BFCF7BEF841EC190BFCF7E4F989
:10B3800008EE900A3046FCF7A7F941EC1A0B9FED46
:10B390000D0B53EC102BFCF71FF941EC190BFCF7CC
:10B3A000D3F908EE100A38EE280AB0EE408AB0EE63
:10B3B000480ABDEC068B70BD0000000000000000D4
:10B3C0000000F03F5CC137840000A0412DE9FF413F
:10B3D00005460C4629492A4A891AC908042242EA24
:10B3E00001402B46224627A102F088FB0020029054
:10B3F0000390ADF80840ADF80A40009001906A460D
:10B4000002A9284690DF0646002E32D0304603F0CF
:10B410002DF9074619491A4A891AC908012242EA30
:10B4200001403B462A46234902F068FBBDF8000074
:10B4300010B9BDF8020068B1BDF80230BDF80020B7
:10B440000E490F4FC91BC908012747EA01401AA13D
:10B4500002F054FBBDF8040058B1BDF804200749C0
:10B46000074BC91AC908012343EA0140224902F0E7
:10B4700039FB304604B0BDE8F0810000FC22030037
:10B48000FC2203005570646174696E672064617406
:10B4900061206C656E67746820746F202575206F5D
:10B4A0006E20636F6E6E656374696F6E20307825F1
:10B4B000782E0000F81A03005468652072657175D3
:10B4C00065737465642054582F5258207061636B03
:10B4D0006574206C656E67746820697320746F6F83
:10B4E000206C6F6E672062792025752F2575206F7F
:10B4F00063746574732E0000441B03002DE9F04152
:10B500008046002414E01248006800EBC405287847
:10B5100003F024FA07466878012800D100E00020F3
:10B52000784080F001062878314600F0CDF9641C9F
:10B53000084800788442E6DB0748D0E90010002381
:10B5400059405840014301D005F0C2FABDE8F081EE
:10B550007033002074330020A033002010B5002188
:10B56000034801F007FA044684F3100010BD000000
:10B570000059002070B505460C464FF4803000FAA3
:10B5800004F1284600F085F970BD70B505460C46FB
:10B590004FF4A07000EB840086B23146284600F0DC
:10B5A0000BFA70BD2DE9F04704460D4616461F46BE
:10B5B0004FF4803000FA05F84FF4A07000EB8500DE
:10B5C0001FFA80F926F07F464146206802F014FDFC
:10B5D0004146206802F00AFD4946206802F0FFFC5F
:10B5E00032462946206802F0F1FC4146206802F00C
:10B5F00000FD1FB14146206802F001FDBDE8F08763
:10B6000010B50446206802F0E6FC10BD2DE9F047B5
:10B6100004460D4617466079324941F8207060793A
:10B62000314901EBC000007968B108262F49304A42
:10B63000891AC908022242EA01402EA102F048FA02
:10B640003046BDE8F08729882068C0F8081500BF9B
:10B6500094F90420AB7810461946002808DB4FEA1D
:10B66000417C4FEA1C68DFF8B0C00CF800800BE0AA
:10B670004FEA417C4FEA1C69DFF8A0C000F00F08D8
:10B68000A8F104080CF8089000BF00BF94F904105A
:10B69000084600280DDB00BF00BF00F01F03012299
:10B6A0009A4043099B0003F1E023C3F8002100BF47
:10B6B00000BF00BF00BF012061790B4A02EBC1014E
:10B6C00008716079114641F8304000260749084A60
:10B6D000891AC908032242EA014011A102F0F8F9CF
:10B6E0003046AEE7CC330020D03300205C2303008B
:10B6F000FC22030052544320696E7374616E6365CB
:10B7000020616C726561647920696E697469616C2D
:10B71000697A65642E00000000E400E018ED00E0A6
:10B720005254433A20696E697469616C697A656440
:10B730002E00000010B5014691F90400002807DB37
:10B7400000F01F0301229A40024B440943F82420D1
:10B7500000BF10BD00E200E070B505460C46224671
:10B760000221284600F0A1F870BD10B504464FF440
:10B770008271204600F020F910BD10B5044600216A
:10B78000206802F03FFC10BD10B50446042120687B
:10B7900002F038FC10BD2DE9F84F044688461546E6
:10B7A00099464FF4803000FA08FA4FF4A07000EB8D
:10B7B00088001FFA80FB25F07F455146204600F0A7
:10B7C00068F8206802F007FC06464146206802F04F
:10B7D000F7FB009032464146206802F0F7FB5946DD
:10B7E000206802F0FCFB3146009805F0A5F801281E
:10B7F00006D1102002F0C4FF5946206802F0EFFB8A
:10B80000206802F0E8FB06463146284605F094F829
:10B8100007465146206802F0ECFB012F0FD16A1C4D
:10B820004146206802F0D2FB102002F0A9FF2068F8
:10B8300002F0D1FBB04225D00D20BDE8F88F2A469A
:10B840004146206802F0C2FB206802F0C4FB0646B5
:10B85000681E314605F070F807466FF07F40A0EB98
:10B860000900B84201D20D20E7E75FB96A1C4146E2
:10B87000206802F0ABFB206802F0ADFBB04201D0C3
:10B880000D20DAE701225146204600F00EF8002094
:10B89000D3E770B504460D462946206802F0A6FBA2
:10B8A0002946206802F0A8FB70BD70B504460E461C
:10B8B00015463146206802F09CFB1DB131462068D8
:10B8C00002F09DFB70BD0000F8B505460C46284609
:10B8D00004F058FF05286AD2DFE800F003212A3976
:10B8E0003F00DCB10121284604F05CFF00200090FD
:10B8F0006846FDF773FA2A46012600273046394686
:10B90000FBF7B1FD2B4AD2E9003218431143294A13
:10B9100003C29DF80000FDF767FA00BF47E00CB1D5
:10B92000022000E000200146284604F03BFF3EE0F4
:10B9300044B10321284604F035FF0121284605F0D3
:10B940008AFD03E00121284604F02CFF2FE01CB9FA
:10B950000421284604F026FF29E024B103212846CB
:10B9600004F020FF22E00021284604F01BFF002104
:10B97000284605F070FD002000906846FDF72EFA7D
:10B980002A460126002730463946FBF76CFD0A4659
:10B99000C143D043074B0CCB11401840054AC2E9C4
:10B9A00000109DF80000FDF71FFA00BF00BF00BFA8
:10B9B000F8BD0000A033002070B505460C4628688D
:10B9C000015929B12146286802F009FB012070BD08
:10B9D0000020FCE710B50446E07FFF2808D0A07FD8
:10B9E00018B1E07F01F08DFC02E0E07F01F026FD60
:10B9F00000206077207204F10800D4E9002190470C
:10BA000010BD70B505460E46144624B13146284691
:10BA100000F072FF03E03146284600F04FFF70BD92
:10BA200030B504461088C01C984201D90C2030BDA6
:10BA30000220158848551088401C10800120158868
:10BA400048551088401C108015884C551088401CA3
:10BA500010800020EBE770B504460D4640F214421A
:10BA6000115B0122D4F81004FDF716FB064606B15F
:10BA7000357004F13C0204F5826104F1540072DF78
:10BA800070BD00000EB5DFED1B0AB0EE600ADFED01
:10BA90001A0ACDED020A00200190009000BF24E0B8
:10BAA000164901EB8001D1ED000A60EE800ACDED70
:10BAB000020ADDED020AFCEEE00A10EE901AC1F374
:10BAC00007210191DDED020AFCEEE00A10EE901A6A
:10BAD000C9B200919DF804204100491C084B5A54FA
:10BAE0009DF8001003F81010401C064909788842A0
:10BAF000D6DB0EBD00007A44000000009C38002018
:10BB0000143900201F2B00203EB500BF9DF8000017
:10BB100020F00F00401C00909DF8000020F0F00085
:10BB20001030009000BF172217A168467CDF044642
:10BB300000BF25463DB100BF19A24FF42B71284626
:10BB4000FBF76AFB00BF00BF0020019002901020AD
:10BB5000ADF804003C20ADF806000020ADF8080068
:10BB60004FF4C870ADF80A0001A87ADF044600BFA0
:10BB700025463DB100BF0AA240F2B6212846FBF798
:10BB80004BFB00BF00BF3EBD4E6F726469635F55E3
:10BB90004152545F496E736F6C655F4C656674000B
:10BBA0002E2E5C2E2E5C2E2E5C6D61696E2E630037
:10BBB00070B505460C46608813490988884215D13E
:10BBC000208840F67721884210D1A088C01E0F49F6
:10BBD00008800F490F4A891AC908032242EA014026
:10BBE0000A490B880A880CA101F088FF2B886A8813
:10BBF0000749084E891BC908042646EA01400DA1E1
:10BC000001F07CFF70BD0000142B0020162B0020DB
:10BC100074230300FC22030044617461206C656E90
:10BC20002069732073657420746F2030782558283C
:10BC300025642900415454204D545520657863688B
:10BC4000616E676520636F6D706C657465642E202E
:10BC500063656E7472616C2030782578207065722F
:10BC60006970686572616C2030782578000000008A
:10BC700070B51149114800F025FF044600BF254664
:10BC80003DB100BF0EA240F2E7312846FBF7C4FAEF
:10BC900000BF00BFF721094800F005FF044600BFC0
:10BCA00025463DB100BF06A240F2EA312846FBF727
:10BCB000B3FA00BF00BF70BDB1BB02004834002022
:10BCC0002E2E5C2E2E5C2E2E5C6D61696E2E630016
:10BCD00070B50B48FFF794FC0A4B0CCB841843F16A
:10BCE0000005094903C9201A75EB010004D24FF081
:10BCF0008073E41845F100052046294670BD000018
:10BD0000A8330020B8330020C03300202DE9F041D3
:10BD100004468846E0B2FEF7B3FE0546287802F0F6
:10BD20001DFE07466878012800D100E00020784019
:10BD300080F001064EB10648D0E9001000235940BA
:10BD40005840014301D104F0C3FEBDE8F08100007A
:10BD5000A033002010B501F0BDFC08B902F0DEF8F8
:10BD600010BD0000024600210CE001EB8100074BF2
:10BD700033F82000904204D101EB810003EB8000F6
:10BD80007047491C0029F0D00020F9E7E05000205E
:10BD90002DE9FC5F83460E4691461F46DDE90C45C2
:10BDA000002E01DA704200E0304682464FF0010872
:10BDB00003E09AFBF9FA08F10108CA45F9DA4745A8
:10BDC00000D9B84634B1002E03DB05F00400042886
:10BDD00000D1641E05F0020000B167B105F001005A
:10BDE00048B944B104E0641E20215846FEF726FEFF
:10BDF0000CB1A045F7D3002E05DA76422D21584626
:10BE0000FEF71CFE07E005F00400042803D12B21F7
:10BE10005846FEF713FE05F0020002280DD105F08A
:10BE2000010050B94FB944B104E0641E30215846B6
:10BE3000FEF704FE0CB1A045F7D33B464A46314617
:10BE40005846CDE9004505F04BFABDE8FC9F30B5FA
:10BE5000024600201378C3F38003D3B1137803F0B4
:10BE60000303012B02D0022B10D107E01388C3F388
:10BE700083139B1C0C6823440B6008E00B680225AD
:10BE8000146805EB945423440B6000E000BF00BF2E
:10BE9000012030BD70B505460C464FF48C71284624
:10BEA00002F0B0FB38B14FF48C71284602F0B1FBC0
:10BEB0002046FFF78FFD70BD2DE9F0410446A088B4
:10BEC00000EB020CB4F80480904501DD104600E060
:10BED000A088A8EB0005E088C618B4F8068098454D
:10BEE00001DD184600E0E088A8EB00074888B4F8B8
:10BEF0000080404504DB4888B4F80280404502DDFC
:10BF00000020BDE8F0818888A84202D38888604577
:10BF100001D90020F5E7C888B84202D3C888B042EA
:10BF200001D90020EDE70120EBE70146086808B1E0
:10BF300002680A60704710B50446224602210020BC
:10BF400001F0B8F9002105E054F8210008B1012002
:10BF500010BD491C0229F7D30020F9E710B50848A5
:10BF6000007850B1002405E0022C02D02046FEF7F4
:10BF700041F9641C042CF7D301E0FEF781F910BDF0
:10BF8000C032002010B504460448007800F00100DB
:10BF900018B103480078FEF711FB10BDBC32002039
:10BFA000B832002010B502F097FB20B902F0BAFBBE
:10BFB00000200149887010BD8C510020F7210180BC
:10BFC00017214180002101714171FB2181711B21E9
:10BFD000C171704770B54FF48041002001F02CFE14
:10BFE000044600BF25463DB100BF05A240F2A34173
:10BFF0002846FBF711F900BF00BF01F057FB70BDE9
:10C000002E2E5C2E2E5C2E2E5C6D61696E2E6300D2
:10C01000704700002DE9FF4100272E4800F082FC08
:10C020002C48001F00F07EFC2B48806803902B48B2
:10C0300005680398284028490C3101EB800800BFAF
:10C0400003A94046FFF703FF30B103982840224977
:10C050000C3101EB800800E000E0F1E700BF0024B4
:10C060000AE00398411C284003911B490C3151F808
:10C0700020004DF82400641C022CF2D3009800F03C
:10C08000030001280DD0022814D1BDF80670042148
:10C09000009801EB9050401E039901EB9000039033
:10C0A00009E0BDF806700098C0F3831003990844B6
:10C0B000039000E000BF00BF0648001F00F02BFC0B
:10C0C000064616B1044903988860384604B0BDE8B6
:10C0D000F0810000FC580020E4540020FC330020D4
:10C0E00088B07849784A891AC908032242EA01408F
:10C0F00076A101F0EDFCFFF76DFF04F0F9FC07A855
:10C10000FEF7DCFC03F092FDFDF7DEFCFFF7FCFC24
:10C11000FFF7AEFD04F0C4F8FCF7BEFBFFF782F8B2
:10C1200004F074FD0E2001F08FF8252001F08CF84A
:10C13000182001F089F8694B0FCBCDE90523CDE933
:10C140000301FF208DF80F0018208DF80E00252028
:10C150008DF80D0021208DF80C004FF00070059037
:10C1600001208DF8180000208DF8190000BF002371
:10C170005B4A03A95B4800F025FE04463CB100BFC2
:10C1800059A240F2A6612046FBF746F800BF00BF67
:10C190000020032103460122CDE900101146212091
:10C1A00000F0CDFF4749484A891AC908032242EAEC
:10C1B000014051A101F08CFCFCF7B2FB0120594970
:10C1C000087000205849087058490870FBF7B9FBFF
:10C1D000FBF7EAFD56484078112802D1FBF7E0FC56
:10C1E00009E03849384A891AC908032242EA01405D
:10C1F00050A101F06DFCFDF76BFE5148007801285D
:10C200000AD13049304A891AC908032242EA01405A
:10C210004CA101F05DFC09E02A492B4A891AC908A2
:10C22000032242EA01404DA101F052FCFBF730FF2E
:10C23000FEF77CFC00BFFBF767FEFEF743FE03F052
:10C2400033FCFFF71FFC4B4A4B494C48FDF7B9FE46
:10C250004B4A4C494C48FDF71DFF4C4A4C494D4850
:10C26000FDF73BFF4C4A4D494D48FDF7CDFE4D4A89
:10C270004D494E48FDF7EBFEFDF762FC294800787A
:10C2800001280FD136204A490880002008E02121EA
:10C29000484A117048490A5C464B411C5A54C8B27E
:10C2A000F228F4DB42480088401C80B202904348E8
:10C2B000038802AA3F494248FDF718FB0446FFF7EE
:10C2C00049FDB8E774230300FC220300696E69741A
:10C2D00020737461727465642E00000060160300A0
:10C2E00001060300301603002E2E5C2E2E5C2E2E2F
:10C2F0005C6D61696E2E63004465627567206C6FCA
:10C300006767696E6720666F722055415254206FCF
:10C310007665722052545420737461727465642E71
:10C3200000000000292B00202B2B00202A2B0020AE
:10C330003F2B0020535049204552524F522E0000AF
:10C34000762B0020424E4F30353520696E69746976
:10C35000616C697A6520646F6E650000424E4F30F3
:10C36000353520696E6974696C61697A652066612A
:10C370006C736500542B0020522B0020502B0020A2
:10C380005A2B0020582B0020562B0020602B002019
:10C390005E2B00205C2B0020662B0020642B0020ED
:10C3A000622B00206C2B00206A2B0020682B0020C1
:10C3B0001C2B0020C841002014390020142B002021
:10C3C000F82A00202DE9F04105460E46144698460D
:10C3D000A888871C2088801C3844404502D90C203E
:10C3E000BDE8F081FE2F01D90C20F9E7781C2188E7
:10C3F00070542088401C2080FF20218870542088A1
:10C40000401C208022889119288804F062FF21882E
:10C4100008442080A88800280DDDA86808B90720F6
:10C42000DEE7AA8823889819A968FBF72FF82088E7
:10C43000A988084420800020D2E72DE9FF4F87B06B
:10C44000044691461E46A2462546BAF806009AF8CA
:10C4500005104843001F0690BAF806B0301DB0FB27
:10C46000FBF00590301DB0FBFBF10BFB11000490BD
:10C47000D9F8000081190698814202D90698801BDC
:10C4800001E0D9F800000746C9F8007003E02D6804
:10C490000598401E059005980028F8D1039004984F
:10C4A000ABEB0008B84501D9384600E0404680466D
:10C4B00023E00399089808440290281D0499084431
:10C4C0000190149828B14246DDE90110FAF7DEFF29
:10C4D00004E04246DDE90101FAF7D8FF00200490AC
:10C4E0002D68A7EB0807039840440390BB4501D98A
:10C4F000384600E05846804600BF002FD9D10BB027
:10C50000BDE8F08F70B503460C469CB101F0B8FB56
:10C51000054600220AE0084800EB820108881E68F0
:10C52000B04202D11A60002070BD521CAA42F2D360
:10C530000520F9E70020F7E7000000002DE9F84F9B
:10C5400005460F46144698462878012804D1687895
:10C5500010B90720BDE8F88F2088801C404508D816
:10C560002878012807D12088801C69780844404534
:10C5700001D90C20EEE72088A8EB0000801E86B2CF
:10C5800000962188891CC81969467DDF814600BF55
:10C59000484600B1DEE700BF2878022804D068785A
:10C5A000BDF80010884206DBBDF80000B04202DC96
:10C5B0004FF0090A0BE04FF0080A2878012805D14E
:10C5C0006878B04202DC6878009000E00096BDF820
:10C5D0000000FE2801D90C20BCE7BDF80000401C7B
:10C5E000218878542088401C2080208807F800A0EB
:10C5F0002088401C20802088BDF80010084420803E
:10C600000020A7E70F4802684FF08050D0F834119F
:10C61000082A14D1062910D2DFE801F00305070922
:10C620000B0D012070470020FCE70020FAE70020F6
:10C63000F8E70020F6E70020F4E70020F2E700200A
:10C64000F0E70000300100100F4802684FF0805002
:10C65000D0F83411082A14D1062910D2DFE801F0ED
:10C66000030507090B0D012070470020FCE700209F
:10C67000FAE70020F8E70020F6E70020F4E70020C2
:10C68000F2E70020F0E70000300100100F480268D8
:10C690004FF08050D0F83411082A14D1062910D256
:10C6A000DFE801F0030507090B0D012070470020AA
:10C6B000FCE70020FAE70020F8E70020F6E700207A
:10C6C000F4E70020F2E70020F0E70000300100105E
:10C6D0000F4802684FF08050D0F83411082A14D166
:10C6E000062910D2DFE801F0030507090B0D012030
:10C6F00070470120FCE70120FAE70120F8E701205C
:10C70000F6E70120F4E70120F2E70020F0E700005F
:10C71000300100100F4802684FF08050D0F83411FB
:10C72000082A14D1062910D2DFE801F00305070911
:10C730000B0D002070470020FCE70020FAE70020E6
:10C74000F8E70120F6E70120F4E70120F2E70020F6
:10C75000F0E70000300100100F4802684FF08050F1
:10C76000D0F83411082A14D1062910D2DFE801F0DC
:10C77000030507090B0D012070470120FCE701208C
:10C78000FAE70120F8E70120F6E70120F4E70120AD
:10C79000F2E70020F0E70000300100100F480268C7
:10C7A0004FF08050D0F83411082A14D1062910D245
:10C7B000DFE801F0030507090B0D01207047012098
:10C7C000FCE70120FAE70120F8E70120F6E7012065
:10C7D000F4E70120F2E70020F0E70000300100104C
:10C7E0000F4802684FF08050D0F83411082A14D155
:10C7F000062910D2DFE801F0030507090B0D01201F
:10C8000070470020FCE70020FAE70020F8E700204E
:10C81000F6E70020F4E70020F2E70020F0E7000050
:10C820003001001010B5044609B90E2010BD92FB6E
:10C83000F3F003FB102008B10920F7E72160002086
:10C840006060A060A281E38100BFEFE770B504469D
:10C850000D4629462046FAF7EDFC18B12A882168D2
:10C86000881870BD0020FCE770B505460C4620888E
:10C870006188884204D12846FAF71EFD012070BD68
:10C880000020FCE770B504460D4629462046FAF71D
:10C89000F6FC18B16A882168881870BD0020FCE792
:10C8A00070B505460C4620886188884204D1284628
:10C8B000FAF7DCFC012070BD0020FCE770B50546EE
:10C8C0000C4604F01F0301229A40D143620905EB94
:10C8D000820000F039F8064670BD10B502464809DE
:10C8E00052F8200001F01F040123A340184008B1B2
:10C8F000012010BD0020FCE770B505460C4604F091
:10C900001F03012202FA03F1620905EB820000F025
:10C910003CF8064670BD10B504460021204600F0E4
:10C920001EF810BD10B504460121204600F02DF878
:10C9300010BDF8B504460D466A4629462046FAF76A
:10C9400010FD06460098F8BDF8B504460D466A4647
:10C9500029462046FAF7EBFC06460098F8BDF8B5E4
:10C9600004460D466A4629462046FAF7E0FC06468C
:10C970003046F8BDF8B504460D466A4629462046BD
:10C98000FAF7BCFC06463046F8BDF8B504460D463D
:10C990006A4629462046FAF7BDFC06460098F8BDCF
:10C9A000F8B504460D466A4629462046FAF7E6FCE5
:10C9B00006460098F8BDF8B5044600260020009011
:10C9C0006846FCF70BFA206800686168884215D950
:10C9D00020680068401E226810600178204600F040
:10C9E00033F80646207A21680978401AC5B22068D3
:10C9F0000079A84201DA2068057100BF9DF80000A7
:10CA0000FCF7F2F93046F8BD0246D068081A138ADE
:10CA1000B0FBF3F0C0B27047F8B504460D462E46A1
:10CA2000002000906846FCF7D9F931462046FFF710
:10CA3000EBFF21680A68511C2368196010709DF88B
:10CA40000000FCF7D1F9F8BD0246138AD06801FB5B
:10CA50000300704710B5014600BF09B90E2010BD94
:10CA600000BF087A0B79C01AC2B2D1E90030186051
:10CA700005E008680368581C0C6820601A70101ED6
:10CA8000A2F10103DAB2F4D10B68187100BFE6E736
:10CA900030B502460B46D40802F007020120904050
:10CAA0001D5D284030BD024600BF0AB90E20704708
:10CAB00000BF172901DBF72901DD0720F7E7118007
:10CAC0000020F4E770B504460E4600BF0CB90E20F6
:10CAD00070BD00BF2661F72020806080FB202071A0
